{
  "_format": "hh-sol-artifact-1",
  "contractName": "HumanCommitment",
  "sourceName": "contracts/HumanCommitment.sol",
  "abi": [
    {
      "inputs": [],
      "stateMutability": "nonpayable",
      "type": "constructor"
    },
    {
      "anonymous": false,
      "inputs": [
        {
          "indexed": true,
          "internalType": "bytes32",
          "name": "hash",
          "type": "bytes32"
        },
        {
          "indexed": true,
          "internalType": "address",
          "name": "owner",
          "type": "address"
        },
        {
          "indexed": false,
          "internalType": "uint256",
          "name": "timestamp",
          "type": "uint256"
        }
      ],
      "name": "CommitmentBurned",
      "type": "event"
    },
    {
      "anonymous": false,
      "inputs": [
        {
          "indexed": true,
          "internalType": "bytes32",
          "name": "hash",
          "type": "bytes32"
        },
        {
          "indexed": true,
          "internalType": "address",
          "name": "owner",
          "type": "address"
        },
        {
          "indexed": false,
          "internalType": "uint256",
          "name": "timestamp",
          "type": "uint256"
        }
      ],
      "name": "CommitmentRegistered",
      "type": "event"
    },
    {
      "inputs": [],
      "name": "admin",
      "outputs": [
        {
          "internalType": "address",
          "name": "",
          "type": "address"
        }
      ],
      "stateMutability": "view",
      "type": "function"
    },
    {
      "inputs": [
        {
          "internalType": "bytes32",
          "name": "_hash",
          "type": "bytes32"
        }
      ],
      "name": "burnCommitment",
      "outputs": [],
      "stateMutability": "nonpayable",
      "type": "function"
    },
    {
      "inputs": [
        {
          "internalType": "bytes32",
          "name": "",
          "type": "bytes32"
        }
      ],
      "name": "commitments",
      "outputs": [
        {
          "internalType": "bytes32",
          "name": "hash",
          "type": "bytes32"
        },
        {
          "internalType": "address",
          "name": "owner",
          "type": "address"
        },
        {
          "internalType": "uint256",
          "name": "timestamp",
          "type": "uint256"
        },
        {
          "internalType": "bool",
          "name": "isBurned",
          "type": "bool"
        }
      ],
      "stateMutability": "view",
      "type": "function"
    },
    {
      "inputs": [
        {
          "internalType": "bytes32",
          "name": "_hash",
          "type": "bytes32"
        }
      ],
      "name": "isVerified",
      "outputs": [
        {
          "internalType": "bool",
          "name": "",
          "type": "bool"
        }
      ],
      "stateMutability": "view",
      "type": "function"
    },
    {
      "inputs": [
        {
          "internalType": "bytes32",
          "name": "_hash",
          "type": "bytes32"
        }
      ],
      "name": "registerCommitment",
      "outputs": [],
      "stateMutability": "nonpayable",
      "type": "function"
    }
  ],
  "bytecode": "0x608060405234801561001057600080fd5b50336000806101000a81548173ffffffffffffffffffffffffffffffffffffffff021916908373ffffffffffffffffffffffffffffffffffffffff16021790555061090c806100606000396000f3fe608060405234801561001057600080fd5b50600436106100575760003560e01c80638026a0a91461005c578063839df94514610078578063c181b273146100ab578063d9e314d8146100db578063f851a440146100f7575b600080fd5b610076600480360381019061007191906105ce565b610115565b005b610092600480360381019061008d91906105ce565b61034c565b6040516100a2949392919061067f565b60405180910390f35b6100c560048036038101906100c091906105ce565b6103a9565b6040516100d291906106c4565b60405180910390f35b6100f560048036038101906100f091906105ce565b6103f9565b005b6100ff61056f565b60405161010c91906106df565b60405180910390f35b600060016000838152602001908152602001600020600201540361016e576040517f08c379a000000000000000000000000000000000000000000000000000000000815260040161016590610757565b60405180910390fd5b3373ffffffffffffffffffffffffffffffffffffffff166001600083815260200190815260200160002060010160009054906101000a900473ffffffffffffffffffffffffffffffffffffffff1673ffffffffffffffffffffffffffffffffffffffff161480610229575060008054906101000a900473ffffffffffffffffffffffffffffffffffffffff1673ffffffffffffffffffffffffffffffffffffffff163373ffffffffffffffffffffffffffffffffffffffff16145b610268576040517f08c379a000000000000000000000000000000000000000000000000000000000815260040161025f906107c3565b60405180910390fd5b6001600082815260200190815260200160002060030160009054906101000a900460ff16156102cc576040517f08c379a00000000000000000000000000000000000000000000000000000000081526004016102c39061082f565b60405180910390fd5b600180600083815260200190815260200160002060030160006101000a81548160ff0219169083151502179055503373ffffffffffffffffffffffffffffffffffffffff16817fc70cc6c9ef6fa78c107a7ed81ffa0e8b25dc1d22bc659a8170b28127c7cc58e242604051610341919061084f565b60405180910390a350565b60016020528060005260406000206000915090508060000154908060010160009054906101000a900473ffffffffffffffffffffffffffffffffffffffff16908060020154908060030160009054906101000a900460ff16905084565b6000806001600084815260200190815260200160002060020154141580156103f257506001600083815260200190815260200160002060030160009054906101000a900460ff16155b9050919050565b6000600160008381526020019081526020016000206002015414610452576040517f08c379a0000000000000000000000000000000000000000000000000000000008152600401610449906108b6565b60405180910390fd5b60405180608001604052808281526020013373ffffffffffffffffffffffffffffffffffffffff16815260200142815260200160001515815250600160008381526020019081526020016000206000820151816000015560208201518160010160006101000a81548173ffffffffffffffffffffffffffffffffffffffff021916908373ffffffffffffffffffffffffffffffffffffffff1602179055506040820151816002015560608201518160030160006101000a81548160ff0219169083151502179055509050503373ffffffffffffffffffffffffffffffffffffffff16817f904ad83be12184707748961b680892373fccaf297ba706f5c4812e5c3eeea0bb42604051610564919061084f565b60405180910390a350565b60008054906101000a900473ffffffffffffffffffffffffffffffffffffffff1681565b600080fd5b6000819050919050565b6105ab81610598565b81146105b657600080fd5b50565b6000813590506105c8816105a2565b92915050565b6000602082840312156105e4576105e3610593565b5b60006105f2848285016105b9565b91505092915050565b61060481610598565b82525050565b600073ffffffffffffffffffffffffffffffffffffffff82169050919050565b60006106358261060a565b9050919050565b6106458161062a565b82525050565b6000819050919050565b61065e8161064b565b82525050565b60008115159050919050565b61067981610664565b82525050565b600060808201905061069460008301876105fb565b6106a1602083018661063c565b6106ae6040830185610655565b6106bb6060830184610670565b95945050505050565b60006020820190506106d96000830184610670565b92915050565b60006020820190506106f4600083018461063c565b92915050565b600082825260208201905092915050565b7f436f6d6d69746d656e7420646f6573206e6f7420657869737400000000000000600082015250565b60006107416019836106fa565b915061074c8261070b565b602082019050919050565b6000602082019050818103600083015261077081610734565b9050919050565b7f4e6f7420617574686f72697a6564000000000000000000000000000000000000600082015250565b60006107ad600e836106fa565b91506107b882610777565b602082019050919050565b600060208201905081810360008301526107dc816107a0565b9050919050565b7f416c7265616479206275726e6564000000000000000000000000000000000000600082015250565b6000610819600e836106fa565b9150610824826107e3565b602082019050919050565b600060208201905081810360008301526108488161080c565b9050919050565b60006020820190506108646000830184610655565b92915050565b7f436f6d6d69746d656e7420616c72656164792065786973747300000000000000600082015250565b60006108a06019836106fa565b91506108ab8261086a565b602082019050919050565b600060208201905081810360008301526108cf81610893565b905091905056fea2646970667358221220a07ac10ac735614f4439438a1d19fc7e6ac0ae08dec466f345db1987905af83a64736f6c63430008140033",
  "linkReferences": {},
  "deployedLinkReferences": {}
}